{
  "address": "0xe2b33B7bEb52FF42cF1dDd704C1f4d38B98b96f5",
  "abi": [
    {
      "inputs": [
        {
          "internalType": "address",
          "name": "pricefeedaddress",
          "type": "address"
        }
      ],
      "stateMutability": "nonpayable",
      "type": "constructor"
    },
    {
      "stateMutability": "payable",
      "type": "fallback"
    },
    {
      "inputs": [
        {
          "internalType": "uint256",
          "name": "amount",
          "type": "uint256"
        }
      ],
      "name": "conversion",
      "outputs": [
        {
          "internalType": "uint256",
          "name": "",
          "type": "uint256"
        }
      ],
      "stateMutability": "view",
      "type": "function"
    },
    {
      "inputs": [],
      "name": "fund",
      "outputs": [],
      "stateMutability": "payable",
      "type": "function"
    },
    {
      "inputs": [
        {
          "internalType": "address",
          "name": "",
          "type": "address"
        }
      ],
      "name": "funder",
      "outputs": [
        {
          "internalType": "uint256",
          "name": "",
          "type": "uint256"
        }
      ],
      "stateMutability": "view",
      "type": "function"
    },
    {
      "inputs": [
        {
          "internalType": "uint256",
          "name": "",
          "type": "uint256"
        }
      ],
      "name": "funds",
      "outputs": [
        {
          "internalType": "address",
          "name": "user",
          "type": "address"
        },
        {
          "internalType": "uint256",
          "name": "amount",
          "type": "uint256"
        }
      ],
      "stateMutability": "view",
      "type": "function"
    },
    {
      "inputs": [],
      "name": "minimumAmount",
      "outputs": [
        {
          "internalType": "uint256",
          "name": "",
          "type": "uint256"
        }
      ],
      "stateMutability": "view",
      "type": "function"
    },
    {
      "inputs": [],
      "name": "owner",
      "outputs": [
        {
          "internalType": "address",
          "name": "",
          "type": "address"
        }
      ],
      "stateMutability": "view",
      "type": "function"
    },
    {
      "inputs": [],
      "name": "priceFeed",
      "outputs": [
        {
          "internalType": "contract AggregatorV3Interface",
          "name": "",
          "type": "address"
        }
      ],
      "stateMutability": "view",
      "type": "function"
    },
    {
      "inputs": [],
      "name": "pricefeed",
      "outputs": [
        {
          "internalType": "int256",
          "name": "",
          "type": "int256"
        }
      ],
      "stateMutability": "view",
      "type": "function"
    },
    {
      "inputs": [],
      "name": "withdraw",
      "outputs": [],
      "stateMutability": "nonpayable",
      "type": "function"
    },
    {
      "stateMutability": "payable",
      "type": "receive"
    }
  ],
  "transactionHash": "0x3d57654681145c807c2e9a257369ca8e62413f083f42832955fde8e0e6e73c0c",
  "args": [
    "0x694AA1769357215DE4FAC081bf1f309aDC325306"
  ],
  "numDeployments": 1,
  "solcInputHash": "6c753b0f2b3880c12ce670f092ca40ee",
  "bytecode": "0x60a06040526802b5e3af16b18800006000553480156200001e57600080fd5b50604051620010ca380380620010ca83398181016040528101906200004491906200012d565b3373ffffffffffffffffffffffffffffffffffffffff1660808173ffffffffffffffffffffffffffffffffffffffff1660601b8152505080600360006101000a81548173ffffffffffffffffffffffffffffffffffffffff021916908373ffffffffffffffffffffffffffffffffffffffff160217905550506200015f565b600080fd5b600073ffffffffffffffffffffffffffffffffffffffff82169050919050565b6000620000f582620000c8565b9050919050565b6200010781620000e8565b81146200011357600080fd5b50565b6000815190506200012781620000fc565b92915050565b600060208284031215620001465762000145620000c3565b5b6000620001568482850162000116565b91505092915050565b60805160601c610f45620001856000396000818161039001526106c90152610f456000f3fe60806040526004361061008a5760003560e01c80637b8e8895116100595780637b8e88951461014d5780638da5cb5b1461018b578063b60d4288146101b6578063ba4d0c99146101c0578063bb0c8298146101fd57610099565b806312cd24be146100a35780633ccfd60b146100e0578063590f2113146100f7578063741bef1a1461012257610099565b3661009957610097610228565b005b6100a1610228565b005b3480156100af57600080fd5b506100ca60048036038101906100c591906107ed565b610376565b6040516100d79190610833565b60405180910390f35b3480156100ec57600080fd5b506100f561038e565b005b34801561010357600080fd5b5061010c61058d565b6040516101199190610867565b60405180910390f35b34801561012e57600080fd5b5061013761064d565b60405161014491906108e1565b60405180910390f35b34801561015957600080fd5b50610174600480360381019061016f9190610928565b610673565b604051610182929190610964565b60405180910390f35b34801561019757600080fd5b506101a06106c7565b6040516101ad919061098d565b60405180910390f35b6101be610228565b005b3480156101cc57600080fd5b506101e760048036038101906101e29190610928565b6106eb565b6040516101f49190610833565b60405180910390f35b34801561020957600080fd5b5061021261071a565b60405161021f9190610833565b60405180910390f35b600054610234346106eb565b1015610275576040517f08c379a000000000000000000000000000000000000000000000000000000000815260040161026c90610a05565b60405180910390fd5b600160405180604001604052803373ffffffffffffffffffffffffffffffffffffffff16815260200134815250908060018154018082558091505060019003906000526020600020906002020160009091909190915060008201518160000160006101000a81548173ffffffffffffffffffffffffffffffffffffffff021916908373ffffffffffffffffffffffffffffffffffffffff16021790555060208201518160010155505034600260003373ffffffffffffffffffffffffffffffffffffffff1673ffffffffffffffffffffffffffffffffffffffff168152602001908152602001600020600082825461036d9190610a54565b92505081905550565b60026020528060005260406000206000915090505481565b7f000000000000000000000000000000000000000000000000000000000000000073ffffffffffffffffffffffffffffffffffffffff163373ffffffffffffffffffffffffffffffffffffffff161461041c576040517f08c379a000000000000000000000000000000000000000000000000000000000815260040161041390610af6565b60405180910390fd5b60005b6001805490508110156104dd5760006001828154811061044257610441610b16565b5b906000526020600020906002020160000160009054906101000a900473ffffffffffffffffffffffffffffffffffffffff1690506000600260008373ffffffffffffffffffffffffffffffffffffffff1673ffffffffffffffffffffffffffffffffffffffff16815260200190815260200160002081905550600160006104c99190610720565b5080806104d590610b45565b91505061041f565b5060003373ffffffffffffffffffffffffffffffffffffffff164760405161050490610bbf565b60006040518083038185875af1925050503d8060008114610541576040519150601f19603f3d011682016040523d82523d6000602084013e610546565b606091505b505090508061058a576040517f08c379a000000000000000000000000000000000000000000000000000000000815260040161058190610c20565b60405180910390fd5b50565b600080600360009054906101000a900473ffffffffffffffffffffffffffffffffffffffff1673ffffffffffffffffffffffffffffffffffffffff1663feaf968c6040518163ffffffff1660e01b815260040160a06040518083038186803b1580156105f857600080fd5b505afa15801561060c573d6000803e3d6000fd5b505050506040513d601f19601f820116820180604052508101906106309190610cc3565b5050509150506402540be400816106479190610d3e565b91505090565b600360009054906101000a900473ffffffffffffffffffffffffffffffffffffffff1681565b6001818154811061068357600080fd5b90600052602060002090600202016000915090508060000160009054906101000a900473ffffffffffffffffffffffffffffffffffffffff16908060010154905082565b7f000000000000000000000000000000000000000000000000000000000000000081565b6000670de0b6b3a7640000826106ff61058d565b6107099190610e55565b6107139190610ede565b9050919050565b60005481565b50805460008255600202906000526020600020908101906107419190610744565b50565b5b8082111561078657600080820160006101000a81549073ffffffffffffffffffffffffffffffffffffffff0219169055600182016000905550600201610745565b5090565b600080fd5b600073ffffffffffffffffffffffffffffffffffffffff82169050919050565b60006107ba8261078f565b9050919050565b6107ca816107af565b81146107d557600080fd5b50565b6000813590506107e7816107c1565b92915050565b6000602082840312156108035761080261078a565b5b6000610811848285016107d8565b91505092915050565b6000819050919050565b61082d8161081a565b82525050565b60006020820190506108486000830184610824565b92915050565b6000819050919050565b6108618161084e565b82525050565b600060208201905061087c6000830184610858565b92915050565b6000819050919050565b60006108a76108a261089d8461078f565b610882565b61078f565b9050919050565b60006108b98261088c565b9050919050565b60006108cb826108ae565b9050919050565b6108db816108c0565b82525050565b60006020820190506108f660008301846108d2565b92915050565b6109058161081a565b811461091057600080fd5b50565b600081359050610922816108fc565b92915050565b60006020828403121561093e5761093d61078a565b5b600061094c84828501610913565b91505092915050565b61095e816107af565b82525050565b60006040820190506109796000830185610955565b6109866020830184610824565b9392505050565b60006020820190506109a26000830184610955565b92915050565b600082825260208201905092915050565b7f596f75206e65656420746f2073656e64206d6f72652045544800000000000000600082015250565b60006109ef6019836109a8565b91506109fa826109b9565b602082019050919050565b60006020820190508181036000830152610a1e816109e2565b9050919050565b7f4e487b7100000000000000000000000000000000000000000000000000000000600052601160045260246000fd5b6000610a5f8261081a565b9150610a6a8361081a565b9250827fffffffffffffffffffffffffffffffffffffffffffffffffffffffffffffffff03821115610a9f57610a9e610a25565b5b828201905092915050565b7f596f752062652074686569662100000000000000000000000000000000000000600082015250565b6000610ae0600d836109a8565b9150610aeb82610aaa565b602082019050919050565b60006020820190508181036000830152610b0f81610ad3565b9050919050565b7f4e487b7100000000000000000000000000000000000000000000000000000000600052603260045260246000fd5b6000610b508261081a565b91507fffffffffffffffffffffffffffffffffffffffffffffffffffffffffffffffff821415610b8357610b82610a25565b5b600182019050919050565b600081905092915050565b50565b6000610ba9600083610b8e565b9150610bb482610b99565b600082019050919050565b6000610bca82610b9c565b9150819050919050565b7f5472616e7366657220556e7375636365737366756c0000000000000000000000600082015250565b6000610c0a6015836109a8565b9150610c1582610bd4565b602082019050919050565b60006020820190508181036000830152610c3981610bfd565b9050919050565b600069ffffffffffffffffffff82169050919050565b610c5f81610c40565b8114610c6a57600080fd5b50565b600081519050610c7c81610c56565b92915050565b610c8b8161084e565b8114610c9657600080fd5b50565b600081519050610ca881610c82565b92915050565b600081519050610cbd816108fc565b92915050565b600080600080600060a08688031215610cdf57610cde61078a565b5b6000610ced88828901610c6d565b9550506020610cfe88828901610c99565b9450506040610d0f88828901610cae565b9350506060610d2088828901610cae565b9250506080610d3188828901610c6d565b9150509295509295909350565b6000610d498261084e565b9150610d548361084e565b9250827f7fffffffffffffffffffffffffffffffffffffffffffffffffffffffffffffff0482116000841360008413161615610d9357610d92610a25565b5b817f80000000000000000000000000000000000000000000000000000000000000000583126000841260008413161615610dd057610dcf610a25565b5b827f80000000000000000000000000000000000000000000000000000000000000000582126000841360008412161615610e0d57610e0c610a25565b5b827f7fffffffffffffffffffffffffffffffffffffffffffffffffffffffffffffff0582126000841260008412161615610e4a57610e49610a25565b5b828202905092915050565b6000610e608261081a565b9150610e6b8361081a565b9250817fffffffffffffffffffffffffffffffffffffffffffffffffffffffffffffffff0483118215151615610ea457610ea3610a25565b5b828202905092915050565b7f4e487b7100000000000000000000000000000000000000000000000000000000600052601260045260246000fd5b6000610ee98261081a565b9150610ef48361081a565b925082610f0457610f03610eaf565b5b82820490509291505056fea2646970667358221220281ee00e6b0980e0290cfd01f9d1c41cd94fd1039795991a81ee9c099a3b4c7064736f6c63430008080033",
  "devdoc": {
    "kind": "dev",
    "methods": {},
    "version": 1
  },
  "userdoc": {
    "kind": "user",
    "methods": {},
    "version": 1
  },
  "storageLayout": {
    "storage": [
      {
        "astId": 55,
        "contract": "contracts/FundMe.sol:FundMe",
        "label": "minimumAmount",
        "offset": 0,
        "slot": "0",
        "type": "t_uint256"
      },
      {
        "astId": 59,
        "contract": "contracts/FundMe.sol:FundMe",
        "label": "funds",
        "offset": 0,
        "slot": "1",
        "type": "t_array(t_struct(people)90_storage)dyn_storage"
      },
      {
        "astId": 63,
        "contract": "contracts/FundMe.sol:FundMe",
        "label": "funder",
        "offset": 0,
        "slot": "2",
        "type": "t_mapping(t_address,t_uint256)"
      },
      {
        "astId": 68,
        "contract": "contracts/FundMe.sol:FundMe",
        "label": "priceFeed",
        "offset": 0,
        "slot": "3",
        "type": "t_contract(AggregatorV3Interface)45"
      }
    ],
    "types": {
      "t_address": {
        "encoding": "inplace",
        "label": "address",
        "numberOfBytes": "20"
      },
      "t_array(t_struct(people)90_storage)dyn_storage": {
        "base": "t_struct(people)90_storage",
        "encoding": "dynamic_array",
        "label": "struct FundMe.people[]",
        "numberOfBytes": "32"
      },
      "t_contract(AggregatorV3Interface)45": {
        "encoding": "inplace",
        "label": "contract AggregatorV3Interface",
        "numberOfBytes": "20"
      },
      "t_mapping(t_address,t_uint256)": {
        "encoding": "mapping",
        "key": "t_address",
        "label": "mapping(address => uint256)",
        "numberOfBytes": "32",
        "value": "t_uint256"
      },
      "t_struct(people)90_storage": {
        "encoding": "inplace",
        "label": "struct FundMe.people",
        "members": [
          {
            "astId": 87,
            "contract": "contracts/FundMe.sol:FundMe",
            "label": "user",
            "offset": 0,
            "slot": "0",
            "type": "t_address"
          },
          {
            "astId": 89,
            "contract": "contracts/FundMe.sol:FundMe",
            "label": "amount",
            "offset": 0,
            "slot": "1",
            "type": "t_uint256"
          }
        ],
        "numberOfBytes": "64"
      },
      "t_uint256": {
        "encoding": "inplace",
        "label": "uint256",
        "numberOfBytes": "32"
      }
    }
  }
}